:100000000C942A000C9439030C9470030C94A703ED
:100010000C9447000C9447000C9447000C94470044
:100020000C9447000C9447000C9447000C94470034
:100030000C9447000C9447000C9447000C94470024
:100040000C9447000C9447000C9447000C94470014
:100050000C94470011241FBECFE5D8E0DEBFCDBF12
:1000600010E0A0E6B0E0EEE4F4E102C005900D92ED
:10007000A836B107D9F710E0A8E6B0E001C01D929C
:10008000AD37B107E1F70E944F090C94250A0C9493
:100090000000DF93CF930F92CDB7DEB71982AFE5A3
:1000A000B0E0EFE5F0E0808180688C9389810F906B
:1000B000CF91DF910895DF93CF930F92CDB7DEB745
:1000C0001982AFE5B0E0EFE5F0E080818F778C93A7
:1000D00089810F90CF91DF910895DF93CF93CDB7B2
:1000E000DEB72C970FB6F894DEBF0FBECDBF9C8352
:1000F0008B831A828B819C81009709F415C1198228
:1001000019820DC18981882F90E09C01220F331F35
:100110008B819C81FC01E20FF31F8081813009F00B
:10012000FBC08981282F30E03C872B878B859C85FD
:100130008130910509F467C02B853C85223031055B
:1001400009F4B4C08B859C85009709F0E2C0A5E551
:10015000B0E0E5E5F0E080818C7F8C938981882F89
:1001600090E09C01220F331F8B819C81FC01E20FE8
:10017000F31F8181282F30E03A87298789859A8566
:1001800081309105F9F029853A85223031052CF42A
:1001900089859A85009761F02CC029853A8522309F
:1001A0003105D1F089859A8583309105F9F021C018
:1001B000A5E5B0E0E5E5F0E0808183608C9381E027
:1001C0008A8319C0A5E5B0E0E5E5F0E080818260B2
:1001D0008C9381E08A830FC0A5E5B0E0E5E5F0E00F
:1001E000808181608C9381E08A8305C081E08A836D
:1001F00002C083E08A83ABE5B0E0EBE5F0E080810C
:1002000080648C9388C0A5E5B0E0E5E5F0E08081EE
:10021000837F8C938981882F90E09C01220F331F6C
:100220008B819C81FC01E20FF31F8181282F30E03C
:1002300038872F838F81988581309105E9F02F8150
:100240003885223031052CF48F819885009761F034
:1002500023C02F81388522303105B1F08F819885F8
:1002600083309105D9F018C0A5E5B0E0E5E5F0E0F0
:1002700080818C608C9312C0A5E5B0E0E5E5F0E0EC
:10028000808188608C930AC0A5E5B0E0E5E5F0E0E8
:10029000808184608C9302C083E08A83ABE5B0E008
:1002A000EBE5F0E0808180688C9335C0A4E5B0E098
:1002B000E4E5F0E080818F7B8C938981882F90E04A
:1002C0009C01220F331F8B819C81FC01E20FF31FE5
:1002D0008181282F30E03E832D838D819E81009780
:1002E00031F02D813E812130310559F008C0A4E55F
:1002F000B0E0E4E5F0E0808180648C9302C083E0AC
:100300008A83ABE5B0E0EBE5F0E0808180628C931E
:1003100002C083E08A831A8289818F5F8983898101
:10032000882309F4EFCE02C082E08A838A812C966A
:100330000FB6F894DEBF0FBECDBFCF91DF91089509
:10034000DF93CF93CDB7DEB72B970FB6F894DEBF10
:100350000FBECDBF8A836B8319828A81823008F0F9
:10036000BDC08A81282F30E03B872A878A859B85FC
:100370008130910509F44DC02A853B852230310535
:1003800009F488C08A859B85009709F0A4C0A5E57B
:10039000B0E0E5E5F0E080818C7F8C938B81282FA5
:1003A00030E0398728878885998581309105F1F07B
:1003B00028853985223031052CF488859985009768
:1003C00069F024C02885398522303105B9F0888547
:1003D00099858330910509F47EC018C0A5E5B0E089
:1003E000E5E5F0E0808183608C9375C0A5E5B0E021
:1003F000E5E5F0E0808182608C936DC0A5E5B0E01A
:10040000E5E5F0E0808181608C9365C083E08983BD
:1004100062C0A5E5B0E0E5E5F0E08081837F8C93E4
:100420008B81282F30E03F832E838E819F81813006
:100430009105E9F02E813F81223031052CF48E8127
:100440009F81009761F023C02E813F8122303105CA
:10045000B1F08E819F8183309105E9F118C0A5E547
:10046000B0E0E5E5F0E080818C608C9334C0A5E5D8
:10047000B0E0E5E5F0E0808188608C932CC0A5E5D4
:10048000B0E0E5E5F0E0808184608C9324C083E0F7
:10049000898321C08B81282F30E03D832C838C8180
:1004A0009D81009731F02C813D812130310549F04B
:1004B00010C0A4E5B0E0E4E5F0E0808180648C93B6
:1004C0000AC0A4E5B0E0E4E5F0E080818F7B8C9386
:1004D00002C083E0898381E0898302C083E089834D
:1004E00089812B960FB6F894DEBF0FBECDBFCF919A
:1004F000DF910895DF93CF9300D000D0CDB7DEB762
:100500008A8319828A81882369F58A81282F30E0BD
:100510003C832B838B819C818130910589F02B81D9
:100520003C8122303105A1F08B819C810097B9F488
:10053000ABE5B0E0EBE5F0E0808180648C930FC028
:10054000ABE5B0E0EBE5F0E0808180688C9307C01C
:10055000ABE5B0E0EBE5F0E0808180628C9381E078
:10056000898302C083E0898389810F900F900F9067
:100570000F90CF91DF910895DF93CF9300D000D0FB
:10058000CDB7DEB78A8319828A81882369F58A818B
:10059000282F30E03C832B838B819C818130910517
:1005A00089F02B813C8122303105A1F08B819C8127
:1005B0000097B9F4ABE5B0E0EBE5F0E080818F7B2C
:1005C0008C930FC0ABE5B0E0EBE5F0E080818F7776
:1005D0008C9307C0ABE5B0E0EBE5F0E080818F7D68
:1005E0008C9381E0898302C083E0898389810F90A5
:1005F0000F900F900F90CF91DF910895DF93CF93DD
:1006000000D000D000D0CDB7DEB79B838A837D8336
:100610006C834E8319828A819B810097F1F08E81D1
:100620008823D9F48E81882F90E0880F991FFC01D0
:10063000E859FF4F8A819B81918380838E81882F27
:1006400090E0880F991FFC01E259FF4F8C819D813A
:100650009183808381E0898302C082E089838981DC
:1006600026960FB6F894DEBF0FBECDBFCF91DF91B7
:1006700008951F920F920FB60F9211242F933F935C
:100680004F935F936F937F938F939F93AF93BF939A
:10069000EF93FF93DF93CF93CDB7DEB780916800E0
:1006A00090916900009749F0E0916800F09169002D
:1006B00080916E0090916F000995CF91DF91FF912D
:1006C000EF91BF91AF919F918F917F916F915F91CA
:1006D0004F913F912F910F900FBE0F901F90189543
:1006E0001F920F920FB60F9211242F933F934F93A7
:1006F0005F936F937F938F939F93AF93BF93EF938A
:10070000FF93DF93CF93CDB7DEB780916A009091CE
:100710006B00009749F0E0916A00F0916B008091C6
:100720007000909171000995CF91DF91FF91EF9149
:10073000BF91AF919F918F917F916F915F914F91F9
:100740003F912F910F900FBE0F901F9018951F9201
:100750000F920FB60F9211242F933F934F935F93F5
:100760006F937F938F939F93AF93BF93EF93FF9379
:10077000DF93CF93CDB7DEB780916C0090916D0081
:10078000009749F0E0916C00F0916D00809172004B
:10079000909173000995CF91DF91FF91EF91BF91F7
:1007A000AF919F918F917F916F915F914F913F9109
:1007B0002F910F900FBE0F901F901895DF93CF933E
:1007C00000D000D00F92CDB7DEB78A836B83198239
:1007D0008A818430A8F58A81282F30E03D832C83DC
:1007E0008C819D8181309105D1F02C813D81223019
:1007F00031052CF48C819D81009761F01EC02C8105
:100800003D812230310581F08C819D8183309105BD
:1008100081F013C0EAE3F0E08B8180830EC0E7E350
:10082000F0E08B81808309C0E4E3F0E08B8180837A
:1008300004C0E1E3F0E08B81808381E0898302C022
:1008400083E0898389810F900F900F900F900F9014
:10085000CF91DF910895DF93CF9300D000D00F9216
:10086000CDB7DEB78A836B8319828A818430A8F57D
:100870008A81282F30E03D832C838C819D818130BB
:100880009105D1F02C813D81223031052CF48C81F1
:100890009D81009761F01EC02C813D812230310581
:1008A00081F08C819D818330910581F013C0EBE351
:1008B000F0E08B8180830EC0E8E3F0E08B818083E1
:1008C00009C0E5E3F0E08B81808304C0E2E3F0E05F
:1008D0008B81808381E0898302C083E08983898161
:1008E0000F900F900F900F900F90CF91DF91089580
:1008F000DF93CF9300D000D0CDB7DEB78A831982C3
:100900008A81843008F041C08A81282F30E03C83FE
:100910002B838B819C8181309105E9F02B813C8177
:10092000223031052CF48B819C81009761F02AC024
:100930002B813C8122303105B1F08B819C81833049
:100940009105C9F01FC0ABE3B0E0EBE3F0E08081BC
:1009500080958C9317C0A8E3B0E0E8E3F0E08081D5
:1009600080958C930FC0A5E3B0E0E5E3F0E08081D3
:1009700080958C9307C0A2E3B0E0E2E3F0E08081D1
:1009800080958C9381E0898302C083E0898389818B
:100990000F900F900F900F90CF91DF910895DF93FC
:1009A000CF9300D000D000D0CDB7DEB78A837C8350
:1009B0006B8319828B819C81009709F443C08A81E3
:1009C0008430E8F58A81282F30E03E832D838D81A5
:1009D0009E8181309105E1F02D813E8122303105EB
:1009E0002CF48D819E81009761F026C02D813E817F
:1009F00022303105A1F08D819E8183309105B1F0C7
:100A00001BC0E9E3F0E08081EB81FC81808314C0AE
:100A1000E6E3F0E08081EB81FC8180830DC0E3E3BD
:100A2000F0E08081EB81FC81808306C0E0E3F0E0B0
:100A30008081EB81FC81808381E0898305C083E034
:100A4000898302C082E08983898126960FB6F89453
:100A5000DEBF0FBECDBFCF91DF910895DF93CF935F
:100A600000D000D000D0CDB7DEB78A836B834C8333
:100A700019828A81843008F0DCC08B81883008F0CC
:100A8000D8C08C81823008F0D4C08A81282F30E011
:100A90003E832D838D819E818130910509F443C071
:100AA0002D813E81223031052CF48D819E8100976D
:100AB00071F0BCC02D813E812230310509F45FC048
:100AC0008D819E818330910509F485C0AFC08C81F2
:100AD0008823A9F4AAE3B0E0EAE3F0E08081482F9C
:100AE0008B81282F30E081E090E0022E02C0880F39
:100AF000991F0A94E2F7809584238C9397C0AAE308
:100B0000B0E0EAE3F0E08081482F8B81282F30E0CD
:100B100081E090E0022E02C0880F991F0A94E2F74C
:100B2000842B8C9383C08C818823A9F4A7E3B0E045
:100B3000E7E3F0E08081482F8B81282F30E081E0CF
:100B400090E0022E02C0880F991F0A94E2F7809568
:100B500084238C936BC0A7E3B0E0E7E3F0E08081EF
:100B6000482F8B81282F30E081E090E0022E02C0D8
:100B7000880F991F0A94E2F7842B8C9357C08C81BD
:100B80008823A9F4A4E3B0E0E4E3F0E08081482FF7
:100B90008B81282F30E081E090E0022E02C0880F88
:100BA000991F0A94E2F7809584238C933FC0A4E3B5
:100BB000B0E0E4E3F0E08081482F8B81282F30E023
:100BC00081E090E0022E02C0880F991F0A94E2F79C
:100BD000842B8C932BC08C818823A9F4A1E3B0E0F3
:100BE000E1E3F0E08081482F8B81282F30E081E025
:100BF00090E0022E02C0880F991F0A94E2F78095B8
:100C000084238C9313C0A1E3B0E0E1E3F0E08081A2
:100C1000482F8B81282F30E081E090E0022E02C027
:100C2000880F991F0A94E2F7842B8C9381E08983C3
:100C300002C083E08983898126960FB6F894DEBFCF
:100C40000FBECDBFCF91DF910895DF93CF9300D03A
:100C500000D000D0CDB7DEB78A836B834C83198276
:100C60008A81843008F0DCC08B81883008F0D8C0DD
:100C70008C81823008F0D4C08A81282F30E03E83F6
:100C80002D838D819E818130910509F443C02D8192
:100C90003E81223031052CF48D819E81009771F0C8
:100CA000BCC02D813E812230310509F45FC08D81A9
:100CB0009E818330910509F485C0AFC08C81882363
:100CC000A9F4ABE3B0E0EBE3F0E08081482F8B8147
:100CD000282F30E081E090E0022E02C0880F991F9B
:100CE0000A94E2F7809584238C9397C0ABE3B0E03D
:100CF000EBE3F0E08081482F8B81282F30E081E00A
:100D000090E0022E02C0880F991F0A94E2F7842B0C
:100D10008C9383C08C818823A9F4A8E3B0E0E8E336
:100D2000F0E08081482F8B81282F30E081E090E037
:100D3000022E02C0880F991F0A94E2F7809584233F
:100D40008C936BC0A8E3B0E0E8E3F0E08081482F2B
:100D50008B81282F30E081E090E0022E02C0880FC6
:100D6000991F0A94E2F7842B8C9357C08C818823B7
:100D7000A9F4A5E3B0E0E5E3F0E08081482F8B81A2
:100D8000282F30E081E090E0022E02C0880F991FEA
:100D90000A94E2F7809584238C933FC0A5E3B0E0EA
:100DA000E5E3F0E08081482F8B81282F30E081E05F
:100DB00090E0022E02C0880F991F0A94E2F7842B5C
:100DC0008C932BC08C818823A9F4A2E3B0E0E2E3EA
:100DD000F0E08081482F8B81282F30E081E090E087
:100DE000022E02C0880F991F0A94E2F7809584238F
:100DF0008C9313C0A2E3B0E0E2E3F0E08081482FDF
:100E00008B81282F30E081E090E0022E02C0880F15
:100E1000991F0A94E2F7842B8C9381E0898302C0A6
:100E200083E08983898126960FB6F894DEBF0FBED2
:100E3000CDBFCF91DF910895DF93CF9300D000D045
:100E40000F92CDB7DEB78A836B8319828A81843093
:100E500008F075C08B81883008F071C08A81282F16
:100E600030E03D832C838C819D818130910549F157
:100E70002C813D81223031052CF48C819D8100979D
:100E800061F05AC02C813D812230310571F18C8195
:100E90009D8183309105E9F14FC0ABE3B0E0EBE316
:100EA000F0E08081482F8B81282F30E081E090E0B6
:100EB000022E02C0880F991F0A94E2F784278C93B0
:100EC0003BC0A8E3B0E0E8E3F0E08081482F8B81ED
:100ED000282F30E081E090E0022E02C0880F991F99
:100EE0000A94E2F784278C9327C0A5E3B0E0E5E3FA
:100EF000F0E08081482F8B81282F30E081E090E066
:100F0000022E02C0880F991F0A94E2F784278C935F
:100F100013C0A2E3B0E0E2E3F0E08081482F8B81D0
:100F2000282F30E081E090E0022E02C0880F991F48
:100F30000A94E2F784278C9381E0898302C083E0DE
:100F4000898389810F900F900F900F900F90CF9110
:100F5000DF910895DF93CF93CDB7DEB727970FB614
:100F6000F894DEBF0FBECDBF8A836B835D834C8355
:100F700019828C819D81009709F47EC08A8184301A
:100F800008F077C08B81883008F073C08A81282FE1
:100F900030E03F832E834E815F814130510559F10E
:100FA0008E819F818230910534F42E813F812115FD
:100FB000310569F05BC04E815F814230510579F1A6
:100FC0008E819F818330910509F43DC04FC0E9E3D4
:100FD000F0E08081282F30E08B81882F90E0A901FC
:100FE00002C0559547958A95E2F7CA018170EC8158
:100FF000FD8180833BC0E6E3F0E08081282F30E074
:101000008B81882F90E0A90102C0559547958A955C
:10101000E2F7CA018170EC81FD81808327C0E3E3A0
:10102000F0E08081282F30E08B81882F90E0A901AB
:1010300002C0559547958A95E2F7CA018170EC8107
:10104000FD81808313C0E0E3F0E08081282F30E051
:101050008B81882F90E0A90102C0559547958A950C
:10106000E2F7CA018170EC81FD81808381E0898390
:1010700005C083E0898302C082E089838981279645
:101080000FB6F894DEBF0FBECDBFCF91DF910895AC
:10109000DF93CF93CDB7DEB7E0E4F0E086E880835E
:1010A000ABE2B0E0EBE2F0E0808182608C93E9E2B9
:1010B000F0E08CE08083E0E4F0E01082AAE2B0E0AF
:1010C000EAE2F0E0808188608C93AAE2B0E0EAE294
:1010D000F0E0808180618C93ABE2B0E0EBE2F0E085
:1010E00080818E7F8C93CF91DF910895DF93CF9392
:1010F00000D0CDB7DEB78A831982EBE2F0E08081C1
:10110000829586958770882F90E081709070009707
:10111000A1F3ECE2F0E08A818083EBE2F0E08081F1
:101120008295869586958370882F90E08170907067
:10113000882349F0ABE2B0E0EBE2F0E0808180642C
:101140008C9381E0898389810F900F90CF91DF91FB
:101150000895DF93CF9300D00F92CDB7DEB79B8376
:101160008A8319828A819B81009771F0EBE2F0E01B
:1011700080818823DCF7ECE2F0E08081EA81FB816A
:10118000808381E0898302C082E0898389810F9016
:101190000F900F90CF91DF910895DF93CF9300D000
:1011A0000F92CDB7DEB79B838A8319828A819B8198
:1011B000009701F117C0EBE2F0E0808182958695FF
:1011C0008770882F90E0817090700097A1F3ACE257
:1011D000B0E0EA81FB8180818C938A819B810196BA
:1011E0009B838A83EA81FB818081882321F781E0C8
:1011F000898302C082E0898389810F900F900F90CC
:10120000CF91DF910895DF93CF9300D000D000D02D
:10121000CDB7DEB79E838D831C828D819E81009722
:1012200091F11B821A82EBE2F0E080818823DCF7E7
:10123000ECE2F0E080818983EBE2F0E080818823BA
:10124000DCF7ECE2F0E080818B839B818981981749
:1012500061F48A81282F30E08D819E81FC01E20FAC
:10126000F31F108281E08C8310C08A81282F30E028
:101270008D819E81FC01E20FF31F8B8180838A8127
:101280008F5F8A83D9CF82E08C838C8126960FB6BC
:10129000F894DEBF0FBECDBFCF91DF910895DF93ED
:1012A000CF93CDB7DEB7809178008E7F80937800A2
:1012B000809178008D7F80937800809178008F7D79
:1012C0008093780083E061E041E00E942E0583E096
:1012D00060E040E00E942E050E9448080E949809A4
:1012E000809178008270882379F00E9498098CE4BC
:1012F00090E090937A0080937900809179009091AA
:101300007A000E947608EACF809178008470882362
:1013100029F30E94980987E490E090937A008093E3
:1013200079008091790090917A000E947608D6CF5A
:10133000DF93CF93CDB7DEB784E790E00E94A90892
:1013400080917600882F90E0FC01EE59FF4F90814C
:1013500080917400981791F4809176008F5F80934C
:10136000760080917600863009F06CC0809178001C
:101370008160809378001092760064C0809178003C
:1013800081708823D1F0809174008C3209F05AC0AA
:10139000809175008F5F809375008091750081301A
:1013A00009F050C0809178008E7F80937800809102
:1013B000780082608093780045C0809178008270C8
:1013C000882321F480917500823059F58091740052
:1013D0008E3229F480917800806280937800809129
:1013E00074008C3279F5809175008F5F8093750061
:1013F00080917500823059F4809178008D7F8093C0
:101400007800809178008F7D809378001BC0809158
:1014100075008330B9F480917800846080937800FF
:1014200011C0809178008470882351F080917400FD
:101430008C3241F4809178008B7F8093780002C0D9
:0E14400010927600CF91DF910895F894FFCFBF
:08144E0001012447504747410A
:00000001FF
